:100000000C9472000C9491000C9491000C9491004B
:100010000C9491000C9491000C9491000C9491001C
:100020000C9491000C9491000C9491000C9491000C
:100030000C9491000C9491000C9491000C949100FC
:100040000C9491000C94F9020C9491000C94910082
:100050000C94CC020C9491000C9491000C9491009F
:100060000C9491000C9493000C94B9000C94E9004A
:100070000C9491000C9491000C9491000C949100BC
:100080000C9491000C9491000C9491000C949100AC
:100090000C94BF010C94E3010C9414020C94910095
:1000A0000C9491000C9491000C9491000C9491008C
:1000B0000C9491000C9491000C9491000C9491007C
:1000C0000C9491000C9491000C9491000C9491006C
:1000D0000C9491000C9491000C9491000C9491005C
:1000E0000C94910011241FBECFEFD1E2DEBFCDBF33
:1000F00012E0A0E0B2E0E2E4FDE000E00BBF02C0ED
:1001000007900D92A832B107D9F714E0A8E2B2E047
:1001100001C01D92A734B107E1F70E946E030C9451
:100120009F060C9400001F920F920FB60F920BB611
:100130000F9211248F939F93EF93FF932F9A909197
:10014000C60080912E02E82FF0E0EF77F070E35DBB
:10015000FD4F92838F5F80932E022F98FF91EF9136
:100160009F918F910F900BBE0F900FBE0F901F901D
:1001700018951F920F920FB60F920BB60F92112483
:100180008F939F93EF93FF939091B0028091AF0272
:10019000981779F08091AF02E82FF0E0EF77F070D8
:1001A000E155FD4F92819093C6008F5F8093AF021F
:1001B00005C08091C1008F7D8093C100FF91EF91B8
:1001C0009F918F910F900BBE0F900FBE0F901F90BD
:1001D00018951F920F920FB60F9211240F900FBE19
:1001E0000F901F9018959B01AC01E0ECF0E080812E
:1001F0008260808360E074E284EF90E00E94A70355
:100200002C5F3F4F4F4F5F4FCA01B90128E030E0EC
:1002100040E050E00E94A70321503040E4ECF0E0C1
:100220003183208320813181C901089510922E02EB
:1002300080912E0280932D021092B0028091B00224
:100240008093AF0260E071EE80E090E00E94F300E6
:1002500086E08093C200E1ECF0E088E18083808159
:1002600080688083089590912E0280912D029817C6
:1002700019F42FEF3FEF0EC080912D02E82FF0E030
:10028000EF77F070E35DFD4F9281292F30E08F5FB3
:1002900080932D02C9010895282F8091B002E82F84
:1002A000F0E0EF77F070E155FD4F22838F5F809390
:1002B000B002E1ECF0E0808180628083332727FD8B
:1002C0003095C9010895BC0120E030E013C02F5FD4
:1002D0003F4F8091B002E82FF0E0EF77F070E155EA
:1002E000FD4F42838F5F8093B0028091C100806296
:1002F0008093C100FB01E20FF31F4081442339F7D3
:10030000C90108950F931F93DF93CF93CDB7DEB745
:10031000EC970FB6F894DEBF0FBECDBFFE01ED5BCC
:10032000FF4F419151918E010F5F1F4FC8016CE348
:1003300070E09F010E94C203382FD80111C0809144
:10034000B002E82FF0E0EF77F070E155FD4F228327
:100350008F5F8093B0028091C10080628093C10062
:100360002D91222361F7832FEC960FB6F894DEBF10
:100370000FBECDBFCF91DF911F910F9108951F92B6
:100380000F920FB60F920BB60F9211248F939F937B
:10039000EF93FF939091CE008091B403E82FF0E0AB
:1003A000EF77F070ED54FC4F92838F5F8093B4032E
:1003B000FF91EF919F918F910F900BBE0F900FBE09
:1003C0000F901F9018951F920F920FB60F920BB6B9
:1003D0000F9211248F939F93EF93FF939091320389
:1003E00080913103981781F0479A80913103E82F6B
:1003F000F0E0EF77F070EF5CFC4F92819093CE00CD
:100400008F5F8093310305C08091C9008F7D8093F9
:10041000C900FF91EF919F918F910F900BBE0F90AC
:100420000FBE0F901F9018951F920F920FB60F924C
:10043000112447980F900FBE0F901F9018959B01A5
:10044000AC01E8ECF0E080818260808360E074E2DF
:1004500084EF90E00E94A7032C5F3F4F4F4F5F4F08
:10046000CA01B90128E030E040E050E00E94A70353
:1004700021503040ECECF0E0318320832081318149
:10048000C90108953F9A47981092B4038091B4032C
:100490008093B3031092320380913203809331032F
:1004A00060E071EE80E090E00E941F0286E08093A1
:1004B000CA0088ED8093C90008959091B40380919B
:1004C000B303981719F42FEF3FEF0EC08091B303D9
:1004D000E82FF0E0EF77F070ED54FC4F9281292F78
:1004E00030E08F5F8093B303C9010895282F809176
:1004F0003203E82FF0E0EF77F070EF5CFC4F2283DF
:100500008F5F80933203E9ECF0E08081806280832A
:10051000332727FD3095C9010895AC0120E030E074
:1005200017C080913203E82FF0E0EF77F070DA0126
:10053000A20FB31F9C91EF5CFC4F92838F5F80935F
:1005400032038091C90080628093C9002F5F3F4FC2
:100550002617370734F3C9010895EAE7F0E087E08A
:10056000808310927C008081806C808308959091BC
:100570007C00907E982B90937C0080917A00806420
:1005800080937A0080917A0086FDFCCF20917800DC
:1005900030917900C90108951F920F920FB60F9202
:1005A0000BB60F9211242F933F934F935F936F934A
:1005B0007F938F939F93AF93BF93EF93FF93E091BC
:1005C0003504F0913604309709F00995FF91EF91C9
:1005D000BF91AF919F918F917F916F915F914F915B
:1005E0003F912F910F900BBE0F900FBE0F901F9059
:1005F00018951F920F920FB60F92112474980F90B6
:100600000FBE0F901F90189582E080938100809319
:100610006F006C9A88EB9BE0909389008093880030
:1006200008959093360480933504892B21F08091AE
:100630006F00816003C080916F008E7F80936F0098
:1006400008958091280290912902A0912A02B091E8
:100650002B020196A11DB11D8093280290932902BF
:10066000A0932A02B0932B02749A60912802709191
:10067000290280912A0290912B022EE130E040E085
:1006800050E00E948503611571058105910551F4C3
:1006900080912C02882319F010922C02089581E099
:1006A00080932C020895279A0E94AD020E941601A1
:1006B00060E472E48FE090E00E94F3000E94420246
:1006C00060E472E48FE090E00E941F020E94040345
:1006D00081E293E00E941103789408950E945303ED
:1006E00080E092E00E9463010E9433012FEF8F3F70
:1006F000920711F00E9476020E945D022FEF8F3F59
:10070000920791F30E944C01EFCFA1E21A2EAA1B8F
:10071000BB1BFD010DC0AA1FBB1FEE1FFF1FA217B1
:10072000B307E407F50720F0A21BB30BE40BF50BAE
:10073000661F771F881F991F1A9469F76095709537
:10074000809590959B01AC01BD01CF01089597FB69
:10075000092E05260ED057FD04D0D7DF0AD0001C85
:1007600038F450954095309521953F4F4F4F5F4F4E
:100770000895F6F790958095709561957F4F8F4F0E
:100780009F4F08950F931F93DF93CF93CDB7DEB79D
:100790002E970FB6F894DEBF0FBECDBF8C0177FF4A
:1007A00002C060E070E8615070407E836D831A8300
:1007B000098386E08C83CE010196BA01A9010E94CB
:1007C000F9032D813E8137FD09C0EF81F8852E1791
:1007D0003F070CF4F901E00FF11F10822E960FB6BF
:1007E000F894DEBF0FBECDBFCF91DF911F910F9167
:1007F00008952F923F924F925F926F927F928F92C5
:100800009F92AF92BF92CF92DF92EF92FF920F939F
:100810001F93DF93CF93CDB7DEB72B970FB6F89426
:10082000DEBF0FBECDBF3C012B015A01FC01178278
:100830001682838181FD03C06FEF7FEFC6C19AE00E
:10084000892E1E010894211C311CF3012381F20121
:1008500023FD859123FF81912F01882309F4B2C1E3
:10086000853239F423FD859123FF81912F01853253
:1008700029F490E0B3010E941506E7CF982FFF24DA
:10088000EE249924FFE1FF15D0F09B3269F09C32F1
:1008900028F4903259F0933291F40EC09D3249F011
:1008A000903369F441E024C052E0F52A84E0F82A4C
:1008B00028C098E0F92A25C0E0E1FE2A22C0F7FC12
:1008C00029C0892F80538A3070F4F6FE05C0989CA9
:1008D000902C1124980E15C0E89CE02C1124E80EF1
:1008E000F0E2FF2A0EC09E3229F4F6FC6BC140E410
:1008F000F42A07C09C3619F450E8F52A02C098364D
:1009000049F4F20123FD959123FF91912F01992341
:1009100009F0B8CF892F8554833018F08052833086
:1009200038F444E050E0A40EB51E5FE359830FC0D5
:10093000933631F0933779F0933509F056C020C0E3
:10094000F5018081898342E050E0A40EB51E61016B
:1009500001E010E012C0F501C080D180F6FC03C0B8
:100960006FEF7FEF02C0692D70E042E050E0A40E0F
:10097000B51EC6010E940A068C015FE7F52214C06D
:10098000F501C080D180F6FC03C06FEF7FEF02C09D
:10099000692D70E042E050E0A40EB51EC6010E9431
:1009A000FF058C0150E8F52AF3FE07C01AC080E26B
:1009B00090E0B3010E941506EA948E2D90E008178E
:1009C0001907A8F30EC0F601F7FC8591F7FE819197
:1009D0006F0190E0B3010E941506E110EA94015006
:1009E00010400115110579F7EAC0943611F09936D7
:1009F00069F5F7FE08C0F5012081318142815381FC
:100A000084E090E00AC0F501808191819C01442737
:100A100037FD4095542F82E090E0A80EB91E9FE666
:100A2000F92257FF09C050954095309521953F4FC9
:100A30004F4F5F4FE0E8FE2ACA01B901A1012AE049
:100A400030E00E944106D82ED21840C0953729F4D4
:100A50001F2D1F7E2AE030E01DC01F2D197F9F36FD
:100A600061F0903720F4983509F0ACC00FC0903792
:100A700039F0983709F0A6C004C028E030E00AC079
:100A8000106114FD146020E130E004C014FD166014
:100A900020E132E017FF08C0F50160817181828199
:100AA000938144E050E008C0F50180819181BC0150
:100AB00080E090E042E050E0A40EB51EA1010E944B
:100AC0004106D82ED2188FE7F82EF122F6FE0BC081
:100AD0005EEFF522D91438F4F4FE07C0F2FC05C02D
:100AE0008FEEF82202C01D2D01C0192DF4FE0DC09D
:100AF000FE01ED0DF11D8081803319F499EEF9228C
:100B000008C01F5FF2FE05C003C08F2D867809F074
:100B10001F5F0F2DF3FC14C0F0FE0FC01E1510F068
:100B20009D2C0BC09D2C9E0C911A1E2D06C080E2A0
:100B300090E0B3010E9415061F5F1E15C0F304C0AC
:100B40001E1510F4E11A01C0EE2404FF0FC080E36B
:100B500090E0B3010E94150602FF1DC001FD03C015
:100B600088E790E00EC088E590E00BC0802F867883
:100B700091F001FF02C08BE201C080E2F7FC8DE240
:100B800090E0B3010E94150606C080E390E0B30137
:100B90000E9415069A94D914C0F3DA94F101ED0D70
:100BA000F11D808190E0B3010E941506DD20A9F7B8
:100BB00006C080E290E0B3010E941506EA94EE20A0
:100BC000C1F743CEF30166817781CB012B960FB637
:100BD000F894DEBF0FBECDBFCF91DF911F910F9173
:100BE000FF90EF90DF90CF90BF90AF909F908F904D
:100BF0007F906F905F904F903F902F900895FC01F1
:100C00000590615070400110D8F7809590958E0F37
:100C10009F1F0895FC016150704001900110D8F7AA
:100C2000809590958E0F9F1F08950F931F93CF93DC
:100C3000DF938C01EB018B8181FF1BC082FF0DC014
:100C40002E813F818C819D812817390764F4E881CA
:100C5000F9810193F983E88306C0E885F985802F3F
:100C60000995892B31F48E819F8101969F838E8314
:100C700002C00FEF1FEFC801DF91CF911F910F91BD
:100C80000895FA01AA27283051F1203181F1E89422
:100C90006F936E7F6E5F7F4F8F4F9F4FAF4FB1E06F
:100CA0003ED0B4E03CD0670F781F891F9A1FA11D6A
:100CB000680F791F8A1F911DA11D6A0F711D811D6B
:100CC000911DA11D20D009F468943F912AE0269F30
:100CD00011243019305D3193DEF6CF010895462F8F
:100CE0004770405D4193B3E00FD0C9F7F6CF462F70
:100CF0004F70405D4A3318F0495D31FD40524193D9
:100D000002D0A9F7EACFB4E0A69597958795779595
:100D10006795BA95C9F700976105710508959B011C
:100D2000AC010A2E06945795479537952795BA95A5
:100D3000C9F7620F731F841F951FA01D0895F894B3
:020D4000FFCFE3
:100D42000D0A5374617274696E6720417264756929
:100D52006E6F204D6567612052656C6179207072FB
:080D62006F6772616D0D0A005C
:00000001FF
